:020000020000FC
:10000000B1E0A0E017D022D000E000930A01002761
:1000100000910A01039500930A0130E141D01CD000
:10002000119630E13DD00B3098F30DD000E00093F5
:100030000A01EECF1F9319E01D931A951030E4F7D3
:1000400002D01F910895B1E0A0E008950FEF04B928
:1000500007B905B908B908950C9105D008954598D8
:100060000895459A0895FF93EF930F920FB60F925C
:10007000F0E0E0E9E00F08F4F3950490449A06FEFE
:10008000449805B80F900FBE0F90EF91FF9108951F
:100090004079243019120278001808034621060E10
:1000A0001F932F931FB71F93112722271A95F1F73C
:1000B0002A95E1F73A95D1F71F911FBF2F911F9114
:0200C0000895A1
:00000001FF
