:020000020000FC
:0200000033C00B
:0200040050C0EA
:0200080046C0F0
:020040003AC0C4
:1000680003E004B905B953985B9A52985A9A02E08A
:1000780000936900E89A08E000936900E99A05E0AE
:1000880005BD01E000936E00789421D0FECF0F9358
:100098000FB70F93299A0F910FBF0F9118950F93D0
:1000A8000FB70F9329980F910FBF0F9118950F93C2
:1000B8000FB70F930091000103950E3311F4189AAE
:1000C80000E0009300010F910FBF0F911895FF27D3
:1000D800EE27DDE1CC27C193DA95D030E1F7FF2791
:0600E800EE27CFBF0895D2
:00000001FF
