:020000020000FC
:0200000033C00B
:0200040063C0D7
:020040002DC0D1
:1000680052985A9A3C9A449A3D9A459A1FEF14B965
:1000780015B902E000936900E89A05E005BD01E0C2
:1000880000936E00002711271093000110930101BF
:100098007894FFCF1F931FB71F93109100011395FA
:1000A8001A3741F4112711D00091010103950A3044
:1000B80009F4002710930001009301011F911FBF4D
:1000C8001F911895002701D01895FF93EF930F9271
:1000D8000FB60F92F0E0ECEFE00F08F4F395049000
:1000E800449A06FE449805B80F900FBE0F90EF9102
:1000F800FF910895407924301912027800180803F6
:040108004621060E78
:00000001FF
