:020000020000FC
:10000000B1E0A0E01BD026D000E000930A01002759
:1000100000910A01039500930A010F930FB70F9304
:100020000D911ED00F910FBF0F9130E13CD00B30DE
:1000300078F30DD000E000930A01EACF1F9319E096
:100040001D931A951F3FE4F702D01F910895B1E068
:10005000A0E008950FEF04B907B905B908B90895EC
:1000600005D0089545980895459A0895FF93EF9314
:100070000F920FB60F92F0E0E6E9E00F08F4F39567
:100080000490449A06FE449805B80F900FBE0F9056
:10009000EF91FF91089540792430191202780018E9
:1000A00008034621060E1F932F931FB71F93112796
:1000B00022271A95F1F72A95E1F73A95D1F71F9182
:0800C0001FBF2F911F9108954D
:00000001FF
