:020000020000FC
:0200000033C00B
:0200040054C0E6
:0200400028C0D6
:1000680052985A9A3C9A449A3D9A459A1FEF14B965
:1000780015B902E000936900E89A05E005BD01E0C2
:1000880000936E0000277894FFCF10D003950A30B4
:1000980009F40027109100011395103809F406D0CF
:1000A800009300011895002701D01895FF93EF934E
:1000B8000F920FB60F92F0E0EEEDE00F08F4F39513
:1000C8000490449A06FE449805B80F900FBE0F900E
:1000D800EF91FF91089540792430191202780018A1
:0600E80008034621060E8C
:00000001FF
